{
  "contractName": "CheckoutGateway",
  "abi": [
    {
      "inputs": [
        {
          "internalType": "address payable",
          "name": "_vaultWallet",
          "type": "address"
        }
      ],
      "stateMutability": "nonpayable",
      "type": "constructor"
    },
    {
      "anonymous": false,
      "inputs": [
        {
          "indexed": false,
          "internalType": "string",
          "name": "orderId",
          "type": "string"
        },
        {
          "indexed": false,
          "internalType": "string",
          "name": "projectId",
          "type": "string"
        },
        {
          "indexed": false,
          "internalType": "string",
          "name": "packageId",
          "type": "string"
        },
        {
          "indexed": false,
          "internalType": "uint256",
          "name": "counter",
          "type": "uint256"
        }
      ],
      "name": "PurchasePackage",
      "type": "event"
    },
    {
      "inputs": [],
      "name": "admin",
      "outputs": [
        {
          "internalType": "address",
          "name": "",
          "type": "address"
        }
      ],
      "stateMutability": "view",
      "type": "function"
    },
    {
      "inputs": [
        {
          "internalType": "address",
          "name": "",
          "type": "address"
        }
      ],
      "name": "counters",
      "outputs": [
        {
          "internalType": "uint256",
          "name": "",
          "type": "uint256"
        }
      ],
      "stateMutability": "view",
      "type": "function"
    },
    {
      "inputs": [],
      "name": "vaultWallet",
      "outputs": [
        {
          "internalType": "address payable",
          "name": "",
          "type": "address"
        }
      ],
      "stateMutability": "view",
      "type": "function"
    },
    {
      "inputs": [
        {
          "internalType": "address",
          "name": "_newAdmin",
          "type": "address"
        }
      ],
      "name": "setAdmin",
      "outputs": [],
      "stateMutability": "nonpayable",
      "type": "function"
    },
    {
      "inputs": [
        {
          "internalType": "address payable",
          "name": "_vaultWallet",
          "type": "address"
        }
      ],
      "name": "setVaultAddress",
      "outputs": [],
      "stateMutability": "nonpayable",
      "type": "function"
    },
    {
      "inputs": [
        {
          "internalType": "string",
          "name": "orderId",
          "type": "string"
        },
        {
          "internalType": "string",
          "name": "projectId",
          "type": "string"
        },
        {
          "internalType": "string",
          "name": "packageId",
          "type": "string"
        }
      ],
      "name": "purchasePackage",
      "outputs": [],
      "stateMutability": "payable",
      "type": "function"
    }
  ],
  "bytecode": "0x608060405234801561001057600080fd5b5060405161068838038061068883398101604081905261002f916100bc565b6001600160a01b0381166100895760405162461bcd60e51b815260206004820152601560248201527f496e76616c6964207661756c7420616464726573730000000000000000000000604482015260640160405180910390fd5b60008054336001600160a01b031991821617909155600180549091166001600160a01b03929092169190911790556100ea565b6000602082840312156100cd578081fd5b81516001600160a01b03811681146100e3578182fd5b9392505050565b61058f806100f96000396000f3fe6080604052600436106100555760003560e01c8063193f81df1461005a57806361f1c5ba1461006f578063704b6c02146100ac57806385535cc5146100cc578063be65ab8c146100ec578063f851a44014610127575b600080fd5b61006d61006836600461040d565b610147565b005b34801561007b57600080fd5b5060015461008f906001600160a01b031681565b6040516001600160a01b0390911681526020015b60405180910390f35b3480156100b857600080fd5b5061006d6100c73660046103ea565b61023d565b3480156100d857600080fd5b5061006d6100e73660046103ea565b6102ed565b3480156100f857600080fd5b506101196101073660046103ea565b60026020526000908152604090205481565b6040519081526020016100a3565b34801561013357600080fd5b5060005461008f906001600160a01b031681565b6000341161018c5760405162461bcd60e51b815260206004820152600d60248201526c496e76616c69642076616c756560981b60448201526064015b60405180910390fd5b6001546040516001600160a01b03909116903480156108fc02916000818181858888f193505050501580156101c5573d6000803e3d6000fd5b50336000908152600260205260409020546101e190600161051d565b3360009081526002602052604090819020829055517fdf9a52afa41f6a155294487dfc6e68b3869dacbfc6faa2b62c86741961474dbd9161022d918991899189918991899189916104cc565b60405180910390a1505050505050565b6000546001600160a01b031633146102835760405162461bcd60e51b81526020600482015260096024820152682737ba1030b236b4b760b91b6044820152606401610183565b6001600160a01b0381166102cb5760405162461bcd60e51b815260206004820152600f60248201526e496e76616c6964206164647265737360881b6044820152606401610183565b600080546001600160a01b0319166001600160a01b0392909216919091179055565b6000546001600160a01b031633146103335760405162461bcd60e51b81526020600482015260096024820152682737ba1030b236b4b760b91b6044820152606401610183565b6001600160a01b0381166103815760405162461bcd60e51b8152602060048201526015602482015274496e76616c6964207661756c74206164647265737360581b6044820152606401610183565b600180546001600160a01b0319166001600160a01b0392909216919091179055565b60008083601f8401126103b4578182fd5b50813567ffffffffffffffff8111156103cb578182fd5b6020830191508360208285010111156103e357600080fd5b9250929050565b6000602082840312156103fb578081fd5b813561040681610541565b9392505050565b60008060008060008060608789031215610425578182fd5b863567ffffffffffffffff8082111561043c578384fd5b6104488a838b016103a3565b90985096506020890135915080821115610460578384fd5b61046c8a838b016103a3565b90965094506040890135915080821115610484578384fd5b5061049189828a016103a3565b979a9699509497509295939492505050565b81835281816020850137506000828201602090810191909152601f909101601f19169091010190565b6080815260006104e060808301898b6104a3565b82810360208401526104f381888a6104a3565b905082810360408401526105088186886104a3565b91505082606083015298975050505050505050565b6000821982111561053c57634e487b7160e01b81526011600452602481fd5b500190565b6001600160a01b038116811461055657600080fd5b5056fea2646970667358221220b0f194f2adea3cc9ea7311dfafa7fc774c98b7a1b872873928c8a1b562a75db764736f6c63430008040033",
  "immutableReferences": {},
  "source": "// SPDX-License-Identifier: MIT\r\npragma solidity 0.8.4;\r\n\r\ncontract CheckoutGateway {\r\n\r\n    address public admin;\r\n    address payable public vaultWallet;\r\n    mapping(address => uint) public counters;\r\n\r\n    event PurchasePackage(string orderId, string projectId, string packageId, uint counter);\r\n\r\n    modifier onlyAdmin() {\r\n        require(msg.sender == admin, \"Not admin\");\r\n        _;\r\n    }\r\n\r\n    constructor(address payable _vaultWallet) {\r\n        require(_vaultWallet != address(0), \"Invalid vault address\");\r\n        admin = msg.sender;\r\n        vaultWallet = _vaultWallet;\r\n    }\r\n\r\n    function setAdmin(address _newAdmin) external onlyAdmin {\r\n        require(_newAdmin != address(0), \"Invalid address\");\r\n        admin = _newAdmin;\r\n    }\r\n\r\n    function setVaultAddress(address payable _vaultWallet) public onlyAdmin {\r\n        require(_vaultWallet != address(0), \"Invalid vault address\");\r\n        vaultWallet = _vaultWallet;\r\n    }\r\n\r\n    function purchasePackage(string calldata orderId, string calldata  projectId, string calldata packageId) external payable {\r\n        require(msg.value > 0, 'Invalid value');\r\n        vaultWallet.transfer(msg.value);\r\n        counters[msg.sender] = counters[msg.sender] + 1;\r\n\r\n        emit PurchasePackage(orderId, projectId, packageId, counters[msg.sender]);\r\n    }\r\n}\r\n",
  "sourcePath": "/mnt/d/project/DCN/ethpayment/contracts/CheckoutGateway.sol",
  "compiler": {
    "name": "solc",
    "version": "0.8.4+commit.c7e474f2.Emscripten.clang"
  },
  "schemaVersion": "3.4.1",
  "updatedAt": "2021-10-07T03:45:54.372Z",
  "devdoc": {
    "kind": "dev",
    "methods": {},
    "version": 1
  },
  "userdoc": {
    "kind": "user",
    "methods": {},
    "version": 1
  }
}